:100000000C942A000C9447000C9447000C94470071
:100010000C9447000C9447000C94DD000C944700AE
:100020000C9447000C9447000C9447000C94470034
:100030000C9447000C9447000C9447000C94470024
:100040000C9447000C9447000C9447000C94470014
:100050000C94470011241FBECFE5D4E0DEBFCDBF16
:1000600010E0A0E6B0E0E6E8F3E002C005900D92F3
:10007000A636B107D9F720E0A6E6B0E001C01D9290
:10008000A738B207E1F70E94B9010C94C1010C94A2
:100090000000E2E6F0E030E020E093E0819188BBF0
:1000A000892F8A95F1F786B3807F803DE9F0803E05
:1000B00041F02F5F3F4F803BE1F4822F880F820F8A
:1000C00004C0822F880F820F8F5F9091660098176F
:1000D000A9F080936600882391F0282F30E03093B8
:1000E0006800209367000895822F880F820F8E5F2B
:1000F000ECCF2430310591F680E0E7CF80E0089521
:10010000CF93DF93EC010E944900282F30E02A3082
:10011000310571F4CE0144961992C817D907E1F759
:1001200010926A001092690088E085BB80E009C0E7
:100130002C30310549F410926A001092690015BA0A
:1001400081E0DF91CF9108952115310579F391E098
:100150002130310521F02230310511F492E095BBB8
:10016000E0916900F0916A00E431F105FCF6EC0FD2
:10017000FD1F80838091690090916A0001969093A1
:100180006A0080936900D2CFFC01828181110EC088
:10019000908180916000981309C0918180916100E5
:1001A000981304C084E085BB81E0089580E0089541
:1001B00080916B0090916C0008958F938FB78F930F
:1001C0009F9380916B0090916C00019690936C00CE
:1001D00080936B009F918F918FBF8F91189588E0CE
:1001E0008EBD1BBC80E18ABD8EB585608EBD89B792
:1001F000806189BF089580918600813089F08823CD
:1002000021F08230A9F080E00895EFE6F0E011924D
:1002100080E0E338F807D9F781E080938600F3CFD8
:100220008FE690E00E948000882359F082E0F5CFAD
:100230008FE690E00E94C400811104C082E0109219
:100240008600089581E0FBCFCF93DF930E94D80012
:10025000EC0180918500813079F0882331F0823083
:10026000D9F0833071F180E029C082B3807F82BBF6
:1002700081E080938500F7CF0E94FB00882399F3EB
:10028000D0936E00C0936D00813011F482E0F1CF05
:10029000823049F783E0EDCF80916D0090916E0040
:1002A0009E01281B390BC901803D9740E0F2D09395
:1002B0006E00C0936D001092850081E0DF91CF91B8
:1002C0000895929A80916D0090916E009E01281B76
:1002D000390BC901803D974030F2D0936E00C09336
:1002E0006D0010928500BFCF0E94D80080918400DD
:1002F0008130C1F0882379F0823009F19091830038
:1003000080918400981731F080918400809383005D
:100310001092860008950E942401813079F780931D
:100320008400ECCF939A0E94FB0029B399B321FF7C
:1003300004C093FD02C0823039F482E0F0CF82B372
:10034000836082BB0E94FB008130C1F61092840062
:10035000D5CF87B38F6087BBBF9880EF88BB8FEF07
:1003600084BB15BA81BB12BA1ABA8BB38A608BBB35
:10037000089578940E94A9010E94EF000E947401E0
:06038000FDCFF894FFCF51
:060386000102FEFDFBF781
:00000001FF
