:100000000C942A000C9447000C9447000C94470071
:100010000C9447000C9447000C94DD000C944700AE
:100020000C9447000C9447000C9447000C94470034
:100030000C9447000C9447000C9447000C94470024
:100040000C9447000C9447000C9447000C94470014
:100050000C94470011241FBECFE5D4E0DEBFCDBF16
:1000600010E0A0E6B0E0E4EEF2E002C005900D92F0
:10007000A636B107D9F720E0A6E6B0E001C01D9290
:10008000A838B207E1F70E9407010C9470010C94A4
:100090000000E2E6F0E030E020E093E0819188BBF0
:1000A000892F8A95F1F786B3807F803DE9F0803E05
:1000B00041F02F5F3F4F803BE1F4822F880F820F8A
:1000C00004C0822F880F820F8F5F9091660098176F
:1000D000A9F080936600882391F0282F30E03093B8
:1000E0006800209367000895822F880F820F8E5F2B
:1000F000ECCF2430310591F680E0E7CF80E0089521
:10010000CF93DF93EC010E944900282F30E02A3082
:10011000310571F4CE0144961992C817D907E1F759
:1001200010926A001092690088E085BB80E005C0EB
:100130002C30310529F415BA81E0DF91CF91089573
:100140002115310599F391E02130310521F022305C
:10015000310511F492E095BBE0916900F0916A00DD
:10016000E431F1051CF7EC0FFD1F808380916900DD
:1001700090916A00019690936A0080936900D6CFAF
:10018000FC01908180916000981310C09181809152
:10019000610098130BC084E085BB81E09F012C5E59
:1001A0003F4F1192E217F307E1F7089580E0F6CF91
:1001B00080916B0090916C0008958F938FB78F930F
:1001C0009F9380916B0090916C00019690936C00CE
:1001D00080936B009F918F918FBF8F91189588E0CE
:1001E0008EBD1BBC80E18ABD8EB585608EBD89B792
:1001F000806189BF089587B38F6087BBBF9880EF08
:1002000088BB8FEF84BB15BA81BB12BA08950E94D8
:10021000FB000E94EF00E4E7F0E0119240E0E838D4
:10022000F407D9F77894C4E008E0D1E012E083E065
:10023000F82E0E94D8009C01909372008093710068
:1002400090917300923041F1B0F49923D1F0913044
:1002500081F712BB84E790E00E948000882349F375
:1002600010937300809171009091720090937000D0
:1002700080936F00DECF9330C9F09430D1F602BB8B
:10028000D8CFE4E7F0E0119250E0E838F507D9F76D
:10029000D2BBD0937300CDCF84E790E00E94C00022
:1002A000882339F2C2BBF0927300C3CF80916F00F4
:1002B00090917000A901481B590B50936E00409318
:1002C0006D0080916D0090916E00803D974008F424
:1002D000B0CF3093700020936F00C0937300A9CF0C
:0402E000F894FFCFC0
:0602E4000102FEFDFBF724
:00000001FF
